:100000000C9461000C947E000C947E000C947E0095
:100010000C947E000C947E000C947E000C947E0068
:100020000C947E000C947E000C947E000C947E0058
:100030000C947E000C947E000C947E000C947E0048
:100040000C947E000C947E000C947E000C947E0038
:100050000C947E00F5048F0474041605C004160584
:1000600016051605160516051605160516051605B8
:10007000160516051605A6041605DC041605160554
:100080000B051605160516051605160516051605A3
:1000900016051605EA04840464041605B204160560
:1000A0001605160516051605160516051605160578
:1000B0001605160516059A041605CE04160516052E
:1000C000000511241FBECFE5D8E0DEBFCDBF11E093
:1000D000A0E6B0E0EAECF4E102C005900D92A8368B
:1000E000B107D9F721E0A8E6B1E001C01D92A6381A
:1000F000B207E1F70E9463050C94630A0C940000B8
:10010000CF93C0E009C0EC2FF0E0EC57FF4F61E067
:1001100080810E941807CF5FC430A8F3CF91089563
:100120001F93CF93DF93162F90E0FC01EE0FFF1F7C
:100130009C01220F331F220F331F220F331FE20FA8
:10014000F31FE859FE4F22812130F1F4EF0160E006
:1001500080810E941807612F8B810E94050861E051
:1001600089810E9418078FEC97E00197F1F700C092
:10017000000060E089810E9418078FEC97E00197EA
:10018000F1F700C000006BC0211169C0EC01CC0F79
:10019000DD1F880F991F880F991F880F991FC80F9F
:1001A000D91FC859DE4F60E088810E941807612F6F
:1001B000661F6627661F8F810E94180716FB662739
:1001C00060F98E810E94180715FB662760F98D8102
:1001D0000E94180714FB662760F98C810E9418079B
:1001E00061E089810E9418078FEC97E00197F1F791
:1001F00000C0000060E089810E9418078FEC97E042
:100200000197F1F700C0000013FB662760F98F81AA
:100210000E94180712FB662760F98E810E9418075A
:1002200011FB662760F98D810E941807612F6170AC
:100230008C810E94180761E089810E9418078FEC69
:1002400097E00197F1F700C0000060E089810E940B
:1002500018078FEC97E00197F1F700C00000DF91DD
:10026000CF911F9108951F93CF93DF93162F90E0A6
:10027000FC01EE0FFF1F9C01220F331F220F331FC3
:10028000220F331FE20FF31FE859FE4F2281213066
:10029000F1F4EF0161E080810E941807612F8B81EA
:1002A0000E94050861E089810E9418078FEC97E0A1
:1002B0000197F1F700C0000060E089810E941807F3
:1002C0008FEC97E00197F1F700C000006BC021119F
:1002D00069C0EC01CC0FDD1F880F991F880F991F93
:1002E000880F991FC80FD91FC859DE4F61E0888158
:1002F0000E941807612F661F6627661F8F810E9464
:10030000180716FB662760F98E810E94180715FBF7
:10031000662760F98D810E94180714FB662760F933
:100320008C810E94180761E089810E9418078FEC78
:1003300097E00197F1F700C0000060E089810E941A
:1003400018078FEC97E00197F1F700C0000013FB4E
:10035000662760F98F810E94180712FB662760F9F3
:100360008E810E94180711FB662760F98D810E941B
:100370001807612F61708C810E94180761E08981E4
:100380000E9418078FEC97E00197F1F700C000007A
:1003900060E089810E9418078FEC97E00197F1F7E0
:1003A00000C00000DF91CF911F91089540E064C02C
:1003B000842F90E0FC01EE0FFF1F9C01220F331FE2
:1003C000220F331F220F331FE20FF31FE859FE4F96
:1003D00010861186FC01E455FF4F20812130E9F49D
:1003E000DC01AA0FBB1FFC01EE0FFF1FEE0FFF1F6A
:1003F000EE0FFF1FEA0FFB1FE859FE4F2283A80FE5
:10040000B91FAD55BF4F8C91808311968C91119778
:10041000818312968C9183832EC021112CC0FC0104
:10042000EE0FFF1FDC01AA0FBB1FAA0FBB1FAA0FF5
:10043000BB1FAE0FBF1FA859BE4F12961C9212973A
:10044000E80FF91FEE0FFF1FEF56FF4F80818C93CF
:10045000818111968C931197828114968C931497B5
:10046000838115968C931597848116968C93169795
:10047000858117968C934F5F80916100481708F42F
:1004800097CF08950F931F93CF930E94D6012FE724
:1004900088E391E0215080409040E1F700C00000E7
:1004A000C0E06FC00C2F10E0F801EE0FFF1FC80175
:1004B000880F991F880F991F880F991FE80FF91F40
:1004C000E859FE4F8281813059F5F801E857FF4F16
:1004D0008081882319F0813031F009C068E38C2FC6
:1004E0000E94900004C06CE38C2F0E949000F801E1
:1004F000E257FF4F60818C2F0E94900061E08C2FAB
:100500000E9490008FEC97E00197F1F700C0000087
:10051000F801E557FF4F60818C2F0E94900030C09A
:1005200081112EC062E08C2F0E949000F801E857E4
:10053000FF4F8081882319F0813031F009C068E2D3
:100540008C2F0E94900004C06CE28C2F0E949000BF
:10055000F801E257FF4F60818C2F0E94900061E00C
:100560008C2F0E9490008FEC97E00197F1F700C06C
:100570000000F801E557FF4F60818C2F0E9490002A
:10058000CF5F80916100C81708F48CCFCF911F9185
:100590000F910895282F30E0F901EE0FFF1F220F71
:1005A000331F220F331F220F331FE20FF31FE859AF
:1005B000FE4F60874187613059F028F0623069F062
:1005C000633091F00895642F60680E949000089550
:1005D000642F606C0E949000089560916000640F29
:1005E00060680E949000089560916000640F606CE4
:1005F0000E9490000895CF93C82F0E9433018C2F42
:1006000090E0FC01EE0FFF1F880F991F880F991FC4
:10061000880F991FE80FF91FE859FE4F81858F5FFA
:100620008187CF9108950F931F93CF93DF93611527
:10063000710531F40EC08D2F0E94FB02CF5F03C005
:100640008B01D82FC0E0F801EC0FF11D6081611122
:10065000F2CFDF91CF911F910F910895CF92DF924A
:10066000EF92FF920F931F93CF93DF93CDB7DEB737
:1006700060970FB6F894DEBF0FBECDBF082F6A019A
:100680007B01411551056105710521F460E30E946C
:10069000FB023CC077235CF46DE20E94FB02F09405
:1006A000E094D094C094C11CD11CE11CF11C10E05A
:1006B00015C0C701B6012AE030E040E050E00E94DA
:1006C0003E0AE1E0F0E0EC0FFD1FE10FF11D605D7F
:1006D0006083C22ED32EE42EF52E1F5FC114D104E9
:1006E000E104F10431F7FF24FA94F10E0DC0E1E0CA
:1006F000F0E0EC0FFD1FEF0DF11DF7FCFA956081A6
:10070000802F0E94FB02FA94FF208CF760960FB6B0
:10071000F894DEBF0FBECDBFDF91CF911F910F9137
:10072000FF90EF90DF90CF900895CF92DF92EF92FD
:10073000FF92CF93C82F6A017B01CB01BA010E94BF
:10074000C708AB01BC018C2F0E942E0320E030E0D3
:10075000A901C701B6010E94C208882324F4F7FA50
:10076000F094F7F8F0946EE28C2F0E94FB02C70120
:10077000B6010E94C7080E94FF089B01AC01C70197
:10078000B6010E94550820E030E048EC52E40E9497
:10079000AF090E94C708AB01BC018C2F0E942E0339
:1007A000CF91FF90EF90DF90CF9008951F93CF935C
:1007B000DF93182FD62FC0E011C087E090E08C1B8C
:1007C00091096D2F70E002C0759567958A95E2F7E3
:1007D0006170605D812F0E94FB02CF5FC83068F3BB
:1007E000DF91CF911F9108951F93CF93DF93D82F5F
:1007F000162F12951F70C62FCF7060E30E94FB0268
:1008000068E58D2F0E94FB021A3030F460E3610F1F
:100810008D2F0E94FB0205C067E3610F8D2F0E94A0
:10082000FB02CA3030F460E36C0F8D2F0E94FB0294
:1008300005C067E36C0F8D2F0E94FB02DF91CF9103
:100840001F91089590E0FC01EE0FFF1F880F991F84
:10085000880F991F880F991FE80FF91FE859FE4F5D
:100860008085DB018C938185FA0180830895AF92A6
:10087000BF92CF92DF92EF92FF920F931F93CF938D
:10088000DF9300D0CDB7DEB70F85E888F9881982ED
:100890001A826E0182E1C80ED11C10E0FFC06532E1
:1008A00009F0C8C01F5FF701E10FF11D6081862FBD
:1008B00090E0FC01E254F109E733F10508F0B6C01D
:1008C000E65DFF4F0C945D0A5601E2E0AE0EB11CEE
:1008D000F60140815181052E000C660B770B802FAD
:1008E0000E942E036501D9C05601F2E0AF0EB11C83
:1008F000F60140815181052E000C660B770B802F8D
:100900000E942E036501C9C05601F2E0AF0EB11C72
:10091000F6016081802F0E94FB026501BEC0560176
:10092000F2E0AF0EB11CF6016081802F0E94FB0245
:100930006501B3C05601F2E0AF0EB11CF601608153
:100940007181802F0E9413036501A7C05601F2E058
:10095000AF0EB11CF60160817181802F0E941303DC
:1009600065019BC05601F4E0AF0EB11CF601408159
:10097000518162817381802F0E94950365018DC032
:100980005601F4E0AF0EB11CF60140815181628145
:100990007381802F0E94950365017FC05601F2E0AC
:1009A000AF0EB11CF6014081518160E070E0802FF4
:1009B0000E942E03650171C05601F2E0AF0EB11C1A
:1009C000F6014081518160E070E0802F0E942E038B
:1009D000650163C05601F2E0AF0EB11CF601608103
:1009E000802F0E94D603650158C05601F2E0AF0E79
:1009F000B11CF6016081802F0E94D60365014DC0B5
:100A00005601F2E0AF0EB11CF6016081802F0E940A
:100A1000F403650142C05601F2E0AF0EB11CF601CD
:100A20006081802F0E94F403650137C0802F0E94EF
:100A3000FB0233C06C3571F51F5FF701E10FF11D4B
:100A400060816E3619F0643789F020C0AE014E5FC8
:100A50005F4FBE016F5F7F4F802F0E94220469812C
:100A60006F5F40E0802F0E94CA0217C0AE014E5F48
:100A70005F4FBE016F5F7F4F802F0E9422044A812B
:100A80004C5F6981802F0E94CA0207C0802F0E949C
:100A9000FB0203C0802F0E94FB021F5FF701E10FE2
:100AA000F11D60816111FBCE812F0F900F90DF91BE
:100AB000CF911F910F91FF90EF90DF90CF90BF905B
:100AC000AF90089508950E9408070E9442020E9474
:100AD000800066E081E00E941B080E946205CEE172
:100AE00001C0C0E040E060E080E00E94CA0240E057
:100AF00060E081E00E94CA0240E060E082E00E9483
:100B0000CA028FEA90E09F938F93DFEFDF93DF932A
:100B1000DF93DF931F9289E18F9387EB90E09F93A0
:100B20008F931F920E94370402E40F9312E01F93E9
:100B30001F921F928AED90E09F938F931F928DE6F4
:100B40008F931F928BE68F9380EE90E09F938F930D
:100B50001F920E9437041F928DE48F931F9281E4AD
:100B60008F931F9282E58F9383EF90E09F938F93F3
:100B70001F920E9437048DB79EB781960FB6F894E6
:100B80009EBF0FBE8DBF0F938EE08F931F921F925B
:100B900088E091E09F938F931F92DF938EE091E026
:100BA0009F938F931F92DF9383E191E09F938F93A5
:100BB0008EEF8F938CE08F938AE191E09F938F93D8
:100BC00082E291E09F938F9381E08F930E9437049C
:100BD0001F92CF931F92CF931F92CF938AE491E0FD
:100BE0009F938F931F930E9437041F92CF938EE59C
:100BF00091E09F938F931F930E943704CF5F8DB72F
:100C00009EB783960FB6F8949EBF0FBE8DBFC83CAB
:100C100009F068CF66CF982F969596959695877030
:100C2000613009F455C020F0623009F4A1C0089584
:100C30009130C1F028F0923039F19330B9F1089534
:100C40004AB321E030E0B90102C0660F771F8A95F0
:100C5000E2F7CB01942F982B9ABB9BB38095892305
:100C60008BBB089547B321E030E0B90102C0660FA5
:100C7000771F8A95E2F7CB01942F982B97BB98B3F7
:100C80008095892388BB089544B321E030E0B90101
:100C900002C0660F771F8A95E2F7CB01942F982B3D
:100CA00094BB95B38095892385BB089541B321E01A
:100CB00030E0B90102C0660F771F8A95E2F7CB01D9
:100CC000942F982B91BB92B38095892382BB089572
:100CD0009130C1F028F0923039F19330B9F1089594
:100CE0004AB321E030E0B90102C0660F771F8A9550
:100CF000E2F7CB018095942F98239ABB9BB389236D
:100D00008BBB089547B321E030E0B90102C0660F04
:100D1000771F8A95E2F7CB018095942F982397BB94
:100D200098B3892388BB089544B321E030E0B9012A
:100D300002C0660F771F8A95E2F7CB018095942F4A
:100D4000982394BB95B3892385BB089541B321E0D3
:100D500030E0B90102C0660F771F8A95E2F7CB0138
:100D60008095942F982391BB92B3892382BB0895D9
:100D70009130C1F028F0923039F19330B9F10895F3
:100D80004AB321E030E0B90102C0660F771F8A95AF
:100D9000E2F7CB01962F909594239ABB9BB3892BB6
:100DA0008BBB089547B321E030E0B90102C0660F64
:100DB000771F8A95E2F7CB01962F9095942397BBE6
:100DC00098B3892B88BB089544B321E030E0B90182
:100DD00002C0660F771F8A95E2F7CB01962F909598
:100DE000942394BB95B3892B85BB089541B321E02F
:100DF00030E0B90102C0660F771F8A95E2F7CB0198
:100E0000962F9095942391BB92B3892B82BB089522
:100E1000CF93C0E009C0EC2FF0E0EC59FF4F6081A8
:100E20008C2F0E940B06CF5FC032A8F3CF9108959C
:100E3000982F969596959695282F2770803208F0D2
:100E4000CCC0662309F464C0613009F0C8C0913099
:100E5000E9F030F0923081F1933009F443C0C1C021
:100E60008AB390E0022E02C0959587950A94E2F726
:100E700080FFB9C03BB381E090E002C0880F991FAA
:100E80002A95E2F7832B8BBB80E0089587B390E02F
:100E9000022E02C0959587950A94E2F780FFA5C0BF
:100EA00038B381E090E002C0880F991F2A95E2F7DD
:100EB000832B88BB80E0089584B390E0022E02C0AB
:100EC000959587950A94E2F780FF91C035B381E04C
:100ED00090E002C0880F991F2A95E2F7832B85BB0B
:100EE00080E0089581B390E0022E02C09595879529
:100EF0000A94E2F780FF7DC032B381E090E002C047
:100F0000880F991F2A95E2F7832B82BB80E0089512
:100F10009130F1F030F0923091F1933009F446C005
:100F20006AC08AB390E0022E02C0959587950A9414
:100F3000E2F780FF62C03BB381E090E002C0880F1F
:100F4000991F2A95E2F7809583238BBB80E0089553
:100F500087B390E0022E02C0959587950A94E2F738
:100F600080FF4DC038B381E090E002C0880F991F28
:100F70002A95E2F78095832388BB80E0089584B3A7
:100F800090E0022E02C0959587950A94E2F780FFC3
:100F900038C035B381E090E002C0880F991F2A95D0
:100FA000E2F78095832385BB80E0089581B390E0CC
:100FB000022E02C0959587950A94E2F780FF23C020
:100FC00032B381E090E002C0880F991F2A95E2F7C2
:100FD0008095832382BB80E0089582E0089585E0B8
:100FE000089580E0089583E0089583E0089583E004
:100FF000089583E0089580E0089583E0089583E0F4
:10100000089583E0089583E00895813049F028F041
:10101000823049F0833051F00CC06BBB80E0089502
:1010200068BB80E0089565BB80E0089562BB80E006
:10103000089581E00895813089F018F08330D9F067
:1010400026C087B18F7B87B987B18F7787B988E84A
:1010500093E1909363008093620019C087B180642C
:1010600087B987B18F7787B988E893E19093630058
:10107000809362000CC087B1806487B987B18068B3
:1010800087B980E09AE0909363008093620087B113
:101090008F7D87B9677086B1887F86B986B1682BE6
:1010A00066B986B1806886B908955058BB27AA27CB
:1010B0000E946D080C9475090E94670938F00E941F
:1010C0006E0920F039F49F3F19F426F40C9464095A
:1010D0000EF4E095E7FB0C945E09E92F0E94860967
:1010E00058F3BA17620773078407950720F079F45D
:1010F000A6F50C94A8090EF4E0950B2EBA2FA02D9E
:101100000B01B90190010C01CA01A0011124FF27B4
:10111000591B99F0593F50F4503E68F11A16F040AF
:10112000A22F232F342F4427585FF3CF46953795AE
:101130002795A795F0405395C9F77EF41F16BA0B73
:10114000620B730B840BBAF09150A1F0FF0FBB1F21
:10115000661F771F881FC2F70EC0BA0F621F731F6A
:10116000841F48F4879577956795B795F7959E3FC7
:1011700008F0B0CF9395880F08F09927EE0F979558
:10118000879508950E943A0908F481E008950E9425
:10119000CE086894B1110C94A90908950E948E0993
:1011A00088F09F5798F0B92F9927B751B0F0E1F028
:1011B000660F771F881F991F1AF0BA95C9F714C0D8
:1011C000B13091F00E94A809B1E008950C94A809EB
:1011D000672F782F8827B85F39F0B93FCCF3869511
:1011E00077956795B395D9F73EF49095809570956E
:1011F00061957F4F8F4F9F4F0895E89409C097FBEB
:101200003EF490958095709561957F4F8F4F9F4FDD
:101210009923A9F0F92F96E9BB279395F695879521
:1012200077956795B795F111F8CFFAF4BB0F11F4E4
:1012300060FF1BC06F5F7F4F8F4F9F4F16C088238B
:1012400011F096E911C0772321F09EE8872F762FC1
:1012500005C0662371F096E8862F70E060E02AF002
:101260009A95660F771F881FDAF7880F96958795EE
:1012700097F90895990F0008550FAA0BE0E8FEEFC3
:1012800016161706E807F907C0F012161306E4074A
:10129000F50798F0621B730B840B950B39F40A2643
:1012A00061F0232B242B252B21F408950A2609F421
:1012B000A140A6958FEF811D811D089597F99F6725
:1012C00080E870E060E008959FEF80EC08950024CE
:1012D0000A941616170618060906089500240A949B
:1012E00012161306140605060895092E0394000C21
:1012F00011F4882352F0BB0F40F4BF2B11F460FFB0
:1013000004C06F5F7F4F8F4F9F4F089557FD9058D8
:10131000440F551F59F05F3F71F04795880F97FBB9
:10132000991F61F09F3F79F0879508951216130673
:101330001406551FF2CF4695F1DF08C016161706A2
:101340001806991FF1CF86957105610508940895D7
:10135000E894BB2766277727CB0197F908950E9469
:10136000C2090C9475090E94670938F00E946E0941
:1013700020F0952311F00C945E090C94640911245B
:101380000C94A9090E94860970F3959FC1F3950FEB
:1013900050E0551F629FF001729FBB27F00DB11DF9
:1013A000639FAA27F00DB11DAA1F649F6627B00D89
:1013B000A11D661F829F2227B00DA11D621F739F72
:1013C000B00DA11D621F839FA00D611D221F749F80
:1013D0003327A00D611D231F849F600D211D822FC7
:1013E000762F6A2F11249F5750409AF0F1F08823EE
:1013F0004AF0EE0FFF1FBB1F661F771F881F91501B
:101400005040A9F79E3F510580F00C945E090C9462
:10141000A9095F3FE4F3983ED4F3869577956795E5
:10142000B795F795E7959F5FC1F7FE2B880F911D44
:101430009695879597F90895A1E21A2EAA1BBB1BD2
:10144000FD010DC0AA1FBB1FEE1FFF1FA217B30790
:10145000E407F50720F0A21BB30BE40BF50B661FA6
:10146000771F881F991F1A9469F76095709580956A
:1014700090959B01AC01BD01CF010895052E97FB0E
:101480001EF400940E94550A57FD07D00E941C0AC2
:1014900007FC03D04EF40C94550A509540953095B6
:1014A00021953F4F4F4F5F4F0895909580957095D0
:1014B00061957F4F8F4F9F4F0895EE0FFF1F05904F
:0A14C000F491E02D0994F894FFCF99
:1014CA00140388130100000000000001000000005E
:1014DA000000000000000000000000000000020000
:1014EA00000000000C0D0E0F0000000606060C0C92
:1014FA000C01020304050610111415161712111C0B
:10150A001D1E1F1213010203031213010000014DD5
:10151A006F37616D6564004D79205072696E74662B
:10152A002046756E6374696F6E203A205C6E25647E
:10153A0020256420257520257300666C6F61740070
:10154A00205C6E202563202563205C74202573208F
:10155A00256600205C6E20256320205C74202563AC
:10156A00205C742025432000466C6F617400486536
:10157A0078610042696E61727900446563696D61E0
:10158A006C0025733A202544205C6E2025533A20AE
:10159A002562205C6E2025733A202558205C6E2037
:1015AA005C742025733A20256600202564205C6E31
:1015BA00202558205C6E202542205C7420005C6E39
:0815CA00205C74202563000081
:00000001FF
